{
  "_format": "hh-sol-artifact-1",
  "contractName": "NFT",
  "sourceName": "src/backend/contracts/NFT.sol",
  "abi": [
    {
      "inputs": [],
      "stateMutability": "nonpayable",
      "type": "constructor"
    },
    {
      "anonymous": false,
      "inputs": [
        {
          "indexed": true,
          "internalType": "address",
          "name": "owner",
          "type": "address"
        },
        {
          "indexed": true,
          "internalType": "address",
          "name": "approved",
          "type": "address"
        },
        {
          "indexed": true,
          "internalType": "uint256",
          "name": "tokenId",
          "type": "uint256"
        }
      ],
      "name": "Approval",
      "type": "event"
    },
    {
      "anonymous": false,
      "inputs": [
        {
          "indexed": true,
          "internalType": "address",
          "name": "owner",
          "type": "address"
        },
        {
          "indexed": true,
          "internalType": "address",
          "name": "operator",
          "type": "address"
        },
        {
          "indexed": false,
          "internalType": "bool",
          "name": "approved",
          "type": "bool"
        }
      ],
      "name": "ApprovalForAll",
      "type": "event"
    },
    {
      "anonymous": false,
      "inputs": [
        {
          "indexed": true,
          "internalType": "address",
          "name": "from",
          "type": "address"
        },
        {
          "indexed": true,
          "internalType": "address",
          "name": "to",
          "type": "address"
        },
        {
          "indexed": true,
          "internalType": "uint256",
          "name": "tokenId",
          "type": "uint256"
        }
      ],
      "name": "Transfer",
      "type": "event"
    },
    {
      "inputs": [
        {
          "internalType": "address",
          "name": "to",
          "type": "address"
        },
        {
          "internalType": "uint256",
          "name": "tokenId",
          "type": "uint256"
        }
      ],
      "name": "approve",
      "outputs": [],
      "stateMutability": "nonpayable",
      "type": "function"
    },
    {
      "inputs": [
        {
          "internalType": "address",
          "name": "owner",
          "type": "address"
        }
      ],
      "name": "balanceOf",
      "outputs": [
        {
          "internalType": "uint256",
          "name": "",
          "type": "uint256"
        }
      ],
      "stateMutability": "view",
      "type": "function"
    },
    {
      "inputs": [
        {
          "internalType": "uint256",
          "name": "tokenId",
          "type": "uint256"
        }
      ],
      "name": "getApproved",
      "outputs": [
        {
          "internalType": "address",
          "name": "",
          "type": "address"
        }
      ],
      "stateMutability": "view",
      "type": "function"
    },
    {
      "inputs": [
        {
          "internalType": "address",
          "name": "owner",
          "type": "address"
        },
        {
          "internalType": "address",
          "name": "operator",
          "type": "address"
        }
      ],
      "name": "isApprovedForAll",
      "outputs": [
        {
          "internalType": "bool",
          "name": "",
          "type": "bool"
        }
      ],
      "stateMutability": "view",
      "type": "function"
    },
    {
      "inputs": [
        {
          "internalType": "string",
          "name": "_tokenURI",
          "type": "string"
        }
      ],
      "name": "mint",
      "outputs": [
        {
          "internalType": "uint256",
          "name": "",
          "type": "uint256"
        }
      ],
      "stateMutability": "nonpayable",
      "type": "function"
    },
    {
      "inputs": [],
      "name": "name",
      "outputs": [
        {
          "internalType": "string",
          "name": "",
          "type": "string"
        }
      ],
      "stateMutability": "view",
      "type": "function"
    },
    {
      "inputs": [
        {
          "internalType": "uint256",
          "name": "tokenId",
          "type": "uint256"
        }
      ],
      "name": "ownerOf",
      "outputs": [
        {
          "internalType": "address",
          "name": "",
          "type": "address"
        }
      ],
      "stateMutability": "view",
      "type": "function"
    },
    {
      "inputs": [
        {
          "internalType": "address",
          "name": "from",
          "type": "address"
        },
        {
          "internalType": "address",
          "name": "to",
          "type": "address"
        },
        {
          "internalType": "uint256",
          "name": "tokenId",
          "type": "uint256"
        }
      ],
      "name": "safeTransferFrom",
      "outputs": [],
      "stateMutability": "nonpayable",
      "type": "function"
    },
    {
      "inputs": [
        {
          "internalType": "address",
          "name": "from",
          "type": "address"
        },
        {
          "internalType": "address",
          "name": "to",
          "type": "address"
        },
        {
          "internalType": "uint256",
          "name": "tokenId",
          "type": "uint256"
        },
        {
          "internalType": "bytes",
          "name": "_data",
          "type": "bytes"
        }
      ],
      "name": "safeTransferFrom",
      "outputs": [],
      "stateMutability": "nonpayable",
      "type": "function"
    },
    {
      "inputs": [
        {
          "internalType": "address",
          "name": "operator",
          "type": "address"
        },
        {
          "internalType": "bool",
          "name": "approved",
          "type": "bool"
        }
      ],
      "name": "setApprovalForAll",
      "outputs": [],
      "stateMutability": "nonpayable",
      "type": "function"
    },
    {
      "inputs": [
        {
          "internalType": "bytes4",
          "name": "interfaceId",
          "type": "bytes4"
        }
      ],
      "name": "supportsInterface",
      "outputs": [
        {
          "internalType": "bool",
          "name": "",
          "type": "bool"
        }
      ],
      "stateMutability": "view",
      "type": "function"
    },
    {
      "inputs": [],
      "name": "symbol",
      "outputs": [
        {
          "internalType": "string",
          "name": "",
          "type": "string"
        }
      ],
      "stateMutability": "view",
      "type": "function"
    },
    {
      "inputs": [],
      "name": "tokenCount",
      "outputs": [
        {
          "internalType": "uint256",
          "name": "",
          "type": "uint256"
        }
      ],
      "stateMutability": "view",
      "type": "function"
    },
    {
      "inputs": [
        {
          "internalType": "uint256",
          "name": "tokenId",
          "type": "uint256"
        }
      ],
      "name": "tokenURI",
      "outputs": [
        {
          "internalType": "string",
          "name": "",
          "type": "string"
        }
      ],
      "stateMutability": "view",
      "type": "function"
    },
    {
      "inputs": [
        {
          "internalType": "address",
          "name": "from",
          "type": "address"
        },
        {
          "internalType": "address",
          "name": "to",
          "type": "address"
        },
        {
          "internalType": "uint256",
          "name": "tokenId",
          "type": "uint256"
        }
      ],
      "name": "transferFrom",
      "outputs": [],
      "stateMutability": "nonpayable",
      "type": "function"
    }
  ],
  "bytecode": "0x60806040523480156200001157600080fd5b506040518060400160405280600881526020017f44417070204e46540000000000000000000000000000000000000000000000008152506040518060400160405280600481526020017f4441505000000000000000000000000000000000000000000000000000000000815250816000908051906020019062000096929190620000b8565b508060019080519060200190620000af929190620000b8565b505050620001cd565b828054620000c69062000168565b90600052602060002090601f016020900481019282620000ea576000855562000136565b82601f106200010557805160ff191683800117855562000136565b8280016001018555821562000136579182015b828111156200013557825182559160200191906001019062000118565b5b50905062000145919062000149565b5090565b5b80821115620001645760008160009055506001016200014a565b5090565b600060028204905060018216806200018157607f821691505b602082108114156200019857620001976200019e565b5b50919050565b7f4e487b7100000000000000000000000000000000000000000000000000000000600052602260045260246000fd5b612c0980620001dd6000396000f3fe608060405234801561001057600080fd5b50600436106100f55760003560e01c806370a0823111610097578063b88d4fde11610066578063b88d4fde14610284578063c87b56dd146102a0578063d85d3d27146102d0578063e985e9c514610300576100f5565b806370a08231146101fc57806395d89b411461022c5780639f181b5e1461024a578063a22cb46514610268576100f5565b8063095ea7b3116100d3578063095ea7b31461017857806323b872dd1461019457806342842e0e146101b05780636352211e146101cc576100f5565b806301ffc9a7146100fa57806306fdde031461012a578063081812fc14610148575b600080fd5b610114600480360381019061010f9190611c75565b610330565b60405161012191906120bc565b60405180910390f35b610132610412565b60405161013f91906120d7565b60405180910390f35b610162600480360381019061015d9190611d08565b6104a4565b60405161016f9190612055565b60405180910390f35b610192600480360381019061018d9190611c39565b610529565b005b6101ae60048036038101906101a99190611b33565b610641565b005b6101ca60048036038101906101c59190611b33565b6106a1565b005b6101e660048036038101906101e19190611d08565b6106c1565b6040516101f39190612055565b60405180910390f35b61021660048036038101906102119190611ace565b610773565b60405161022391906122f9565b60405180910390f35b61023461082b565b60405161024191906120d7565b60405180910390f35b6102526108bd565b60405161025f91906122f9565b60405180910390f35b610282600480360381019061027d9190611bfd565b6108c3565b005b61029e60048036038101906102999190611b82565b6108d9565b005b6102ba60048036038101906102b59190611d08565b61093b565b6040516102c791906120d7565b60405180910390f35b6102ea60048036038101906102e59190611cc7565b610a8d565b6040516102f791906122f9565b60405180910390f35b61031a60048036038101906103159190611af7565b610ac3565b60405161032791906120bc565b60405180910390f35b60007f80ac58cd000000000000000000000000000000000000000000000000000000007bffffffffffffffffffffffffffffffffffffffffffffffffffffffff1916827bffffffffffffffffffffffffffffffffffffffffffffffffffffffff191614806103fb57507f5b5e139f000000000000000000000000000000000000000000000000000000007bffffffffffffffffffffffffffffffffffffffffffffffffffffffff1916827bffffffffffffffffffffffffffffffffffffffffffffffffffffffff1916145b8061040b575061040a82610b57565b5b9050919050565b6060600080546104219061254f565b80601f016020809104026020016040519081016040528092919081815260200182805461044d9061254f565b801561049a5780601f1061046f5761010080835404028352916020019161049a565b820191906000526020600020905b81548152906001019060200180831161047d57829003601f168201915b5050505050905090565b60006104af82610bc1565b6104ee576040517f08c379a00000000000000000000000000000000000000000000000000000000081526004016104e590612279565b60405180910390fd5b6004600083815260200190815260200160002060009054906101000a900473ffffffffffffffffffffffffffffffffffffffff169050919050565b6000610534826106c1565b90508073ffffffffffffffffffffffffffffffffffffffff168373ffffffffffffffffffffffffffffffffffffffff1614156105a5576040517f08c379a000000000000000000000000000000000000000000000000000000000815260040161059c906122b9565b60405180910390fd5b8073ffffffffffffffffffffffffffffffffffffffff166105c4610c2d565b73ffffffffffffffffffffffffffffffffffffffff1614806105f357506105f2816105ed610c2d565b610ac3565b5b610632576040517f08c379a0000000000000000000000000000000000000000000000000000000008152600401610629906121b9565b60405180910390fd5b61063c8383610c35565b505050565b61065261064c610c2d565b82610cee565b610691576040517f08c379a0000000000000000000000000000000000000000000000000000000008152600401610688906122d9565b60405180910390fd5b61069c838383610dcc565b505050565b6106bc838383604051806020016040528060008152506108d9565b505050565b6000806002600084815260200190815260200160002060009054906101000a900473ffffffffffffffffffffffffffffffffffffffff169050600073ffffffffffffffffffffffffffffffffffffffff168173ffffffffffffffffffffffffffffffffffffffff16141561076a576040517f08c379a0000000000000000000000000000000000000000000000000000000008152600401610761906121f9565b60405180910390fd5b80915050919050565b60008073ffffffffffffffffffffffffffffffffffffffff168273ffffffffffffffffffffffffffffffffffffffff1614156107e4576040517f08c379a00000000000000000000000000000000000000000000000000000000081526004016107db906121d9565b60405180910390fd5b600360008373ffffffffffffffffffffffffffffffffffffffff1673ffffffffffffffffffffffffffffffffffffffff168152602001908152602001600020549050919050565b60606001805461083a9061254f565b80601f01602080910402602001604051908101604052809291908181526020018280546108669061254f565b80156108b35780601f10610888576101008083540402835291602001916108b3565b820191906000526020600020905b81548152906001019060200180831161089657829003601f168201915b5050505050905090565b60075481565b6108d56108ce610c2d565b8383611033565b5050565b6108ea6108e4610c2d565b83610cee565b610929576040517f08c379a0000000000000000000000000000000000000000000000000000000008152600401610920906122d9565b60405180910390fd5b610935848484846111a0565b50505050565b606061094682610bc1565b610985576040517f08c379a000000000000000000000000000000000000000000000000000000000815260040161097c90612259565b60405180910390fd5b60006006600084815260200190815260200160002080546109a59061254f565b80601f01602080910402602001604051908101604052809291908181526020018280546109d19061254f565b8015610a1e5780601f106109f357610100808354040283529160200191610a1e565b820191906000526020600020905b815481529060010190602001808311610a0157829003601f168201915b505050505090506000610a2f6111fc565b9050600081511415610a45578192505050610a88565b600082511115610a7a578082604051602001610a62929190612031565b60405160208183030381529060405292505050610a88565b610a8384611213565b925050505b919050565b6000610aad33600760008154610aa2906125b2565b9190508190556112ba565b610ab9600754836112d8565b6007549050919050565b6000600560008473ffffffffffffffffffffffffffffffffffffffff1673ffffffffffffffffffffffffffffffffffffffff16815260200190815260200160002060008373ffffffffffffffffffffffffffffffffffffffff1673ffffffffffffffffffffffffffffffffffffffff16815260200190815260200160002060009054906101000a900460ff16905092915050565b60007f01ffc9a7000000000000000000000000000000000000000000000000000000007bffffffffffffffffffffffffffffffffffffffffffffffffffffffff1916827bffffffffffffffffffffffffffffffffffffffffffffffffffffffff1916149050919050565b60008073ffffffffffffffffffffffffffffffffffffffff166002600084815260200190815260200160002060009054906101000a900473ffffffffffffffffffffffffffffffffffffffff1673ffffffffffffffffffffffffffffffffffffffff1614159050919050565b600033905090565b816004600083815260200190815260200160002060006101000a81548173ffffffffffffffffffffffffffffffffffffffff021916908373ffffffffffffffffffffffffffffffffffffffff160217905550808273ffffffffffffffffffffffffffffffffffffffff16610ca8836106c1565b73ffffffffffffffffffffffffffffffffffffffff167f8c5be1e5ebec7d5bd14f71427d1e84f3dd0314c0f7b2291e5b200ac8c7c3b92560405160405180910390a45050565b6000610cf982610bc1565b610d38576040517f08c379a0000000000000000000000000000000000000000000000000000000008152600401610d2f90612199565b60405180910390fd5b6000610d43836106c1565b90508073ffffffffffffffffffffffffffffffffffffffff168473ffffffffffffffffffffffffffffffffffffffff161480610db257508373ffffffffffffffffffffffffffffffffffffffff16610d9a846104a4565b73ffffffffffffffffffffffffffffffffffffffff16145b80610dc35750610dc28185610ac3565b5b91505092915050565b8273ffffffffffffffffffffffffffffffffffffffff16610dec826106c1565b73ffffffffffffffffffffffffffffffffffffffff1614610e42576040517f08c379a0000000000000000000000000000000000000000000000000000000008152600401610e3990612119565b60405180910390fd5b600073ffffffffffffffffffffffffffffffffffffffff168273ffffffffffffffffffffffffffffffffffffffff161415610eb2576040517f08c379a0000000000000000000000000000000000000000000000000000000008152600401610ea990612159565b60405180910390fd5b610ebd83838361134c565b610ec8600082610c35565b6001600360008573ffffffffffffffffffffffffffffffffffffffff1673ffffffffffffffffffffffffffffffffffffffff1681526020019081526020016000206000828254610f189190612465565b925050819055506001600360008473ffffffffffffffffffffffffffffffffffffffff1673ffffffffffffffffffffffffffffffffffffffff1681526020019081526020016000206000828254610f6f91906123de565b92505081905550816002600083815260200190815260200160002060006101000a81548173ffffffffffffffffffffffffffffffffffffffff021916908373ffffffffffffffffffffffffffffffffffffffff160217905550808273ffffffffffffffffffffffffffffffffffffffff168473ffffffffffffffffffffffffffffffffffffffff167fddf252ad1be2c89b69c2b068fc378daa952ba7f163c4a11628f55a4df523b3ef60405160405180910390a461102e838383611351565b505050565b8173ffffffffffffffffffffffffffffffffffffffff168373ffffffffffffffffffffffffffffffffffffffff1614156110a2576040517f08c379a000000000000000000000000000000000000000000000000000000000815260040161109990612179565b60405180910390fd5b80600560008573ffffffffffffffffffffffffffffffffffffffff1673ffffffffffffffffffffffffffffffffffffffff16815260200190815260200160002060008473ffffffffffffffffffffffffffffffffffffffff1673ffffffffffffffffffffffffffffffffffffffff16815260200190815260200160002060006101000a81548160ff0219169083151502179055508173ffffffffffffffffffffffffffffffffffffffff168373ffffffffffffffffffffffffffffffffffffffff167f17307eab39ab6107e8899845ad3d59bd9653f200f220920489ca2b5937696c318360405161119391906120bc565b60405180910390a3505050565b6111ab848484610dcc565b6111b784848484611356565b6111f6576040517f08c379a00000000000000000000000000000000000000000000000000000000081526004016111ed906120f9565b60405180910390fd5b50505050565b606060405180602001604052806000815250905090565b606061121e82610bc1565b61125d576040517f08c379a000000000000000000000000000000000000000000000000000000000815260040161125490612299565b60405180910390fd5b60006112676111fc565b9050600081511161128757604051806020016040528060008152506112b2565b80611291846114ed565b6040516020016112a2929190612031565b6040516020818303038152906040525b915050919050565b6112d482826040518060200160405280600081525061169a565b5050565b6112e182610bc1565b611320576040517f08c379a000000000000000000000000000000000000000000000000000000000815260040161131790612219565b60405180910390fd5b806006600084815260200190815260200160002090805190602001906113479291906118f2565b505050565b505050565b505050565b60006113778473ffffffffffffffffffffffffffffffffffffffff166116f5565b156114e0578373ffffffffffffffffffffffffffffffffffffffff1663150b7a026113a0610c2d565b8786866040518563ffffffff1660e01b81526004016113c29493929190612070565b602060405180830381600087803b1580156113dc57600080fd5b505af192505050801561140d57506040513d601f19601f8201168201806040525081019061140a9190611c9e565b60015b611490573d806000811461143d576040519150601f19603f3d011682016040523d82523d6000602084013e611442565b606091505b50600081511415611488576040517f08c379a000000000000000000000000000000000000000000000000000000000815260040161147f906120f9565b60405180910390fd5b805181602001fd5b63150b7a0260e01b7bffffffffffffffffffffffffffffffffffffffffffffffffffffffff1916817bffffffffffffffffffffffffffffffffffffffffffffffffffffffff1916149150506114e5565b600190505b949350505050565b60606000821415611535576040518060400160405280600181526020017f30000000000000000000000000000000000000000000000000000000000000008152509050611695565b600082905060005b60008214611567578080611550906125b2565b915050600a826115609190612434565b915061153d565b60008167ffffffffffffffff8111156115a9577f4e487b7100000000000000000000000000000000000000000000000000000000600052604160045260246000fd5b6040519080825280601f01601f1916602001820160405280156115db5781602001600182028036833780820191505090505b5090505b6000851461168e576001826115f49190612465565b9150600a8561160391906125fb565b603061160f91906123de565b60f81b81838151811061164b577f4e487b7100000000000000000000000000000000000000000000000000000000600052603260045260246000fd5b60200101907effffffffffffffffffffffffffffffffffffffffffffffffffffffffffffff1916908160001a905350600a856116879190612434565b94506115df565b8093505050505b919050565b6116a48383611718565b6116b16000848484611356565b6116f0576040517f08c379a00000000000000000000000000000000000000000000000000000000081526004016116e7906120f9565b60405180910390fd5b505050565b6000808273ffffffffffffffffffffffffffffffffffffffff163b119050919050565b600073ffffffffffffffffffffffffffffffffffffffff168273ffffffffffffffffffffffffffffffffffffffff161415611788576040517f08c379a000000000000000000000000000000000000000000000000000000000815260040161177f90612239565b60405180910390fd5b61179181610bc1565b156117d1576040517f08c379a00000000000000000000000000000000000000000000000000000000081526004016117c890612139565b60405180910390fd5b6117dd6000838361134c565b6001600360008473ffffffffffffffffffffffffffffffffffffffff1673ffffffffffffffffffffffffffffffffffffffff168152602001908152602001600020600082825461182d91906123de565b92505081905550816002600083815260200190815260200160002060006101000a81548173ffffffffffffffffffffffffffffffffffffffff021916908373ffffffffffffffffffffffffffffffffffffffff160217905550808273ffffffffffffffffffffffffffffffffffffffff16600073ffffffffffffffffffffffffffffffffffffffff167fddf252ad1be2c89b69c2b068fc378daa952ba7f163c4a11628f55a4df523b3ef60405160405180910390a46118ee60008383611351565b5050565b8280546118fe9061254f565b90600052602060002090601f0160209004810192826119205760008555611967565b82601f1061193957805160ff1916838001178555611967565b82800160010185558215611967579182015b8281111561196657825182559160200191906001019061194b565b5b5090506119749190611978565b5090565b5b80821115611991576000816000905550600101611979565b5090565b60006119a86119a384612339565b612314565b9050828152602081018484840111156119c057600080fd5b6119cb84828561250d565b509392505050565b60006119e66119e18461236a565b612314565b9050828152602081018484840111156119fe57600080fd5b611a0984828561250d565b509392505050565b600081359050611a2081612b77565b92915050565b600081359050611a3581612b8e565b92915050565b600081359050611a4a81612ba5565b92915050565b600081519050611a5f81612ba5565b92915050565b600082601f830112611a7657600080fd5b8135611a86848260208601611995565b91505092915050565b600082601f830112611aa057600080fd5b8135611ab08482602086016119d3565b91505092915050565b600081359050611ac881612bbc565b92915050565b600060208284031215611ae057600080fd5b6000611aee84828501611a11565b91505092915050565b60008060408385031215611b0a57600080fd5b6000611b1885828601611a11565b9250506020611b2985828601611a11565b9150509250929050565b600080600060608486031215611b4857600080fd5b6000611b5686828701611a11565b9350506020611b6786828701611a11565b9250506040611b7886828701611ab9565b9150509250925092565b60008060008060808587031215611b9857600080fd5b6000611ba687828801611a11565b9450506020611bb787828801611a11565b9350506040611bc887828801611ab9565b925050606085013567ffffffffffffffff811115611be557600080fd5b611bf187828801611a65565b91505092959194509250565b60008060408385031215611c1057600080fd5b6000611c1e85828601611a11565b9250506020611c2f85828601611a26565b9150509250929050565b60008060408385031215611c4c57600080fd5b6000611c5a85828601611a11565b9250506020611c6b85828601611ab9565b9150509250929050565b600060208284031215611c8757600080fd5b6000611c9584828501611a3b565b91505092915050565b600060208284031215611cb057600080fd5b6000611cbe84828501611a50565b91505092915050565b600060208284031215611cd957600080fd5b600082013567ffffffffffffffff811115611cf357600080fd5b611cff84828501611a8f565b91505092915050565b600060208284031215611d1a57600080fd5b6000611d2884828501611ab9565b91505092915050565b611d3a81612499565b82525050565b611d49816124ab565b82525050565b6000611d5a8261239b565b611d6481856123b1565b9350611d7481856020860161251c565b611d7d816126e8565b840191505092915050565b6000611d93826123a6565b611d9d81856123c2565b9350611dad81856020860161251c565b611db6816126e8565b840191505092915050565b6000611dcc826123a6565b611dd681856123d3565b9350611de681856020860161251c565b80840191505092915050565b6000611dff6032836123c2565b9150611e0a826126f9565b604082019050919050565b6000611e226025836123c2565b9150611e2d82612748565b604082019050919050565b6000611e45601c836123c2565b9150611e5082612797565b602082019050919050565b6000611e686024836123c2565b9150611e73826127c0565b604082019050919050565b6000611e8b6019836123c2565b9150611e968261280f565b602082019050919050565b6000611eae602c836123c2565b9150611eb982612838565b604082019050919050565b6000611ed16038836123c2565b9150611edc82612887565b604082019050919050565b6000611ef4602a836123c2565b9150611eff826128d6565b604082019050919050565b6000611f176029836123c2565b9150611f2282612925565b604082019050919050565b6000611f3a602e836123c2565b9150611f4582612974565b604082019050919050565b6000611f5d6020836123c2565b9150611f68826129c3565b602082019050919050565b6000611f806031836123c2565b9150611f8b826129ec565b604082019050919050565b6000611fa3602c836123c2565b9150611fae82612a3b565b604082019050919050565b6000611fc6602f836123c2565b9150611fd182612a8a565b604082019050919050565b6000611fe96021836123c2565b9150611ff482612ad9565b604082019050919050565b600061200c6031836123c2565b915061201782612b28565b604082019050919050565b61202b81612503565b82525050565b600061203d8285611dc1565b91506120498284611dc1565b91508190509392505050565b600060208201905061206a6000830184611d31565b92915050565b60006080820190506120856000830187611d31565b6120926020830186611d31565b61209f6040830185612022565b81810360608301526120b18184611d4f565b905095945050505050565b60006020820190506120d16000830184611d40565b92915050565b600060208201905081810360008301526120f18184611d88565b905092915050565b6000602082019050818103600083015261211281611df2565b9050919050565b6000602082019050818103600083015261213281611e15565b9050919050565b6000602082019050818103600083015261215281611e38565b9050919050565b6000602082019050818103600083015261217281611e5b565b9050919050565b6000602082019050818103600083015261219281611e7e565b9050919050565b600060208201905081810360008301526121b281611ea1565b9050919050565b600060208201905081810360008301526121d281611ec4565b9050919050565b600060208201905081810360008301526121f281611ee7565b9050919050565b6000602082019050818103600083015261221281611f0a565b9050919050565b6000602082019050818103600083015261223281611f2d565b9050919050565b6000602082019050818103600083015261225281611f50565b9050919050565b6000602082019050818103600083015261227281611f73565b9050919050565b6000602082019050818103600083015261229281611f96565b9050919050565b600060208201905081810360008301526122b281611fb9565b9050919050565b600060208201905081810360008301526122d281611fdc565b9050919050565b600060208201905081810360008301526122f281611fff565b9050919050565b600060208201905061230e6000830184612022565b92915050565b600061231e61232f565b905061232a8282612581565b919050565b6000604051905090565b600067ffffffffffffffff821115612354576123536126b9565b5b61235d826126e8565b9050602081019050919050565b600067ffffffffffffffff821115612385576123846126b9565b5b61238e826126e8565b9050602081019050919050565b600081519050919050565b600081519050919050565b600082825260208201905092915050565b600082825260208201905092915050565b600081905092915050565b60006123e982612503565b91506123f483612503565b9250827fffffffffffffffffffffffffffffffffffffffffffffffffffffffffffffffff038211156124295761242861262c565b5b828201905092915050565b600061243f82612503565b915061244a83612503565b92508261245a5761245961265b565b5b828204905092915050565b600061247082612503565b915061247b83612503565b92508282101561248e5761248d61262c565b5b828203905092915050565b60006124a4826124e3565b9050919050565b60008115159050919050565b60007fffffffff0000000000000000000000000000000000000000000000000000000082169050919050565b600073ffffffffffffffffffffffffffffffffffffffff82169050919050565b6000819050919050565b82818337600083830152505050565b60005b8381101561253a57808201518184015260208101905061251f565b83811115612549576000848401525b50505050565b6000600282049050600182168061256757607f821691505b6020821081141561257b5761257a61268a565b5b50919050565b61258a826126e8565b810181811067ffffffffffffffff821117156125a9576125a86126b9565b5b80604052505050565b60006125bd82612503565b91507fffffffffffffffffffffffffffffffffffffffffffffffffffffffffffffffff8214156125f0576125ef61262c565b5b600182019050919050565b600061260682612503565b915061261183612503565b9250826126215761262061265b565b5b828206905092915050565b7f4e487b7100000000000000000000000000000000000000000000000000000000600052601160045260246000fd5b7f4e487b7100000000000000000000000000000000000000000000000000000000600052601260045260246000fd5b7f4e487b7100000000000000000000000000000000000000000000000000000000600052602260045260246000fd5b7f4e487b7100000000000000000000000000000000000000000000000000000000600052604160045260246000fd5b6000601f19601f8301169050919050565b7f4552433732313a207472616e7366657220746f206e6f6e20455243373231526560008201527f63656976657220696d706c656d656e7465720000000000000000000000000000602082015250565b7f4552433732313a207472616e736665722066726f6d20696e636f72726563742060008201527f6f776e6572000000000000000000000000000000000000000000000000000000602082015250565b7f4552433732313a20746f6b656e20616c7265616479206d696e74656400000000600082015250565b7f4552433732313a207472616e7366657220746f20746865207a65726f2061646460008201527f7265737300000000000000000000000000000000000000000000000000000000602082015250565b7f4552433732313a20617070726f766520746f2063616c6c657200000000000000600082015250565b7f4552433732313a206f70657261746f7220717565727920666f72206e6f6e657860008201527f697374656e7420746f6b656e0000000000000000000000000000000000000000602082015250565b7f4552433732313a20617070726f76652063616c6c6572206973206e6f74206f7760008201527f6e6572206e6f7220617070726f76656420666f7220616c6c0000000000000000602082015250565b7f4552433732313a2062616c616e636520717565727920666f7220746865207a6560008201527f726f206164647265737300000000000000000000000000000000000000000000602082015250565b7f4552433732313a206f776e657220717565727920666f72206e6f6e657869737460008201527f656e7420746f6b656e0000000000000000000000000000000000000000000000602082015250565b7f45524337323155524953746f726167653a2055524920736574206f66206e6f6e60008201527f6578697374656e7420746f6b656e000000000000000000000000000000000000602082015250565b7f4552433732313a206d696e7420746f20746865207a65726f2061646472657373600082015250565b7f45524337323155524953746f726167653a2055524920717565727920666f722060008201527f6e6f6e6578697374656e7420746f6b656e000000000000000000000000000000602082015250565b7f4552433732313a20617070726f76656420717565727920666f72206e6f6e657860008201527f697374656e7420746f6b656e0000000000000000000000000000000000000000602082015250565b7f4552433732314d657461646174613a2055524920717565727920666f72206e6f60008201527f6e6578697374656e7420746f6b656e0000000000000000000000000000000000602082015250565b7f4552433732313a20617070726f76616c20746f2063757272656e74206f776e6560008201527f7200000000000000000000000000000000000000000000000000000000000000602082015250565b7f4552433732313a207472616e736665722063616c6c6572206973206e6f74206f60008201527f776e6572206e6f7220617070726f766564000000000000000000000000000000602082015250565b612b8081612499565b8114612b8b57600080fd5b50565b612b97816124ab565b8114612ba257600080fd5b50565b612bae816124b7565b8114612bb957600080fd5b50565b612bc581612503565b8114612bd057600080fd5b5056fea264697066735822122047ce3048559e6bd31ccd1b57dd55d224e5faf62f424ed7d3fb2ed9a29dc90bab64736f6c63430008040033",
  "linkReferences": {},
  "deployedLinkReferences": {}
}